:1000000015C09FC42EC040C485C42BC02AC029C0BF
:1000100028C05DC4C3C425C024C023C022C076C08C
:10002000ADC0FEC02AC144C1A3C18EC111241FBEF0
:10003000CFE5D2E0DEBFCDBF10E0A0E6B0E0EAE45D
:10004000FEE002C005900D92A436B107D9F720E07A
:10005000A4E6B0E001C01D92A73BB207E1F76FD55F
:10006000F2C6CECFE0917100F091720097A193306B
:1000700044F0811106C087A186A317A281E085A361
:100080002AC094A1933031F0943081F0923019F568
:1000900017A221C097A191111EC036A1268D01C0C3
:1000A000880F3A95EAF7822B868F15C087A18111B8
:1000B00009C086A1873020F486A18F5F86A302C085
:1000C00081E008959485A185B2858C91892B8C93CC
:1000D00087A18F5F87A380E00895AF92BF92CF92F0
:1000E000DF92EF92FF920F931F93CF93DF93C09114
:1000F0007100D0917200EDA14E2F50E047305105B4
:1001000008F0A8C1FA01E15FFF4F09941E8E1EA2FC
:100110001FA21E8A1F8A188E198E1A8E1B8E1C8E85
:100120001D8E87E08BA33E81EA81FB81208181E0E7
:1001300090E002C0880F991F3A95E2F7809590955C
:100140008223808391E099A387B38B6187BB8BB7B0
:1001500080648BBFE0917100F091720084A18230C5
:1001600011F495A377C19385A185B2858C918923DC
:100170008C93A781B0851C9215A26CC19CA1933071
:1001800061F0943009F066C12C85E985FA8590818B
:10019000922B90839EA19F5F9EA3813009F05AC14C
:1001A0009EA197300CF482C02B85E985FA85908159
:1001B00092239083EF81F88510822C85E985FA855A
:1001C0009081922B90831EA21E8E1EA21FA21E8AB9
:1001D0001F8A188E198E1A8E1B8E1C8E1D8E97E00C
:1001E0009BA389A32E81EA81FB81408181E090E07D
:1001F000BC0102C0660F771F2A95E2F79B01242BF2
:1002000020833E81E881F981208102C0880F991FF7
:100210003A95E2F7809590958223808382E0B1C081
:100220008CA1843009F016C18EA181110AC09C8571
:10023000E985FA858081892B80838EA18F5F8EA3CB
:1002400009C13E81EA81FB81208181E090E002C00A
:10025000880F991F3A95E2F78095909582238083C5
:1002600083E08DA31EA29B85E985FA858081892381
:100270008083EF81F8851082EDC0F4DE813009F0D3
:10028000E9C08E8D8D871E8E1EA21FA28D8585359D
:1002900021F08C3C09F4DEC009C0B39AB39AE09116
:1002A0007100F091720084E085A3D4C01DA2D2C079
:1002B000D9DE813009F0CEC09B85E985FA85808141
:1002C00089238083EF81F88510829BA18E8DFE01AA
:1002D000E90FF11D97FDFA95868B8BA181508BA3B9
:1002E0001E8E1EA21FA28BA187FFB4C02E853F8544
:1002F000488959896A897B898C899D89AE88BF889C
:10030000C88CD98CEA8CFB8C0C8D1D8D93D549F44F
:10031000B39AB39AE0917100F091720086E085A3E0
:1003200001C01DA2E0917100F0917200168A178A37
:10033000108E118E128E138E148E158E87E083A36D
:10034000168E16A217A286C08DDE813009F082C0FB
:100350002B85E985FA85908192239083EF81F8853A
:1003600010829E8D9F8F8AA31E8E1EA21FA272C016
:100370009FA1933044F0811106C08FA18EA31FA2CC
:1003800081E08DA367C08CA1833091F1843009F4A2
:1003900055C0823009F05EC088A12EA190E002C055
:1003A000959587952A95E2F780FD1CC02E81EA81FC
:1003B000FB81408181E090E0BC0102C0660F771FA5
:1003C0002A95E2F79B01242B20833E81E881F98165
:1003D000208102C0880F991F3A95E2F78095909589
:1003E000822380831FA219A281E08093700032C013
:1003F0008FA1811120C03E81EA81FB81208181E0B3
:1004000090E002C0880F991F3A95E2F78095909589
:10041000822380838EA1873050F48EA18F5F8EA3BC
:100420009C85E985FA858081892B808304C081E0E1
:1004300089A31EA21FA2109270000CC089A1811175
:1004400009C09C85E985FA858081892B80838FA1ED
:100450008F5F8FA3DF91CF911F910F91FF90EF904E
:10046000DF90CF90BF90AF90089527B3242B27BB88
:1004700028B3342F3095232338B3432B3FB7F89458
:10048000FC01680F791FE617F70789F0819198E062
:1004900048BB000000C087FF28BB880F000000C0D9
:1004A00000C000C028BB00C09A9591F7ECCF3FBFB9
:1004B00008959B01220F331F620F731FD6DF8FEA4F
:1004C00094E00197F1F700C00000089542E0F1CFF9
:1004D000E0917100F0917200918380837383628355
:1004E00026835583448312A2178E168E0895E091B9
:1004F0007100F091720084E084A39385A185B28598
:100500008C9189238C93A781B0851C92A481B5819D
:100510002C91868141E050E0BA0102C0660F771F3E
:100520008A95E2F7CB018223968102C0440F551FC2
:100530009A95E2F7282F30E081E04217530709F03F
:1005400080E0CBCDE0917100F091720083E084A354
:10055000B09AE0917100F0917200A481B5812C9164
:10056000868141E050E0BA0102C0660F771F8A958C
:10057000E2F7CB018223968102C0440F551F9A9562
:10058000E2F7282F30E081E04217530709F080E0BE
:10059000A4DDB09A0895E0917100F091720082E0BC
:1005A00084A380917000811110C09385A185B285CC
:1005B0008C9189238C93A781B0851C9294850184AA
:1005C000F285E02D8081892B8083B19A80E085DDE2
:1005D000B19A0895E0917100F091720015A281E046
:1005E00084A37BCDE0917100F091720012A2878DFF
:1005F0000895E0917100F091720095E095A380A3B9
:1006000011A20895EF92FF920F931F93CF93DF9360
:100610008C01680F791FFC013196009719F0411584
:10062000510521F460E070E081E041C02115310501
:1006300031F1240F351FEA01DC0191E0E617F707DD
:1006400010F58991AF014F5F5F4F811107C09C93F7
:100650007A01DF01C217D30780F01DC07A018083C1
:100660009F5FC217D30788F49F3F11F0F701E6CFD1
:100670009C93DA01CF0102967C0191E0F7CFDC0177
:1006800020E091E004C022E002C0FA0120E0A617B9
:10069000B70738F403C0FA0120E091E09C93BF0152
:1006A00001C022E0CB01801B910BBC01822FDF91A6
:1006B000CF911F910F91FF90EF900895CF92DF920D
:1006C000EF92FF920F931F93CF93DF93DC0100977C
:1006D00019F04115510521F460E070E081E053C04C
:1006E0002115310509F449C06A01C20ED31E680FF5
:1006F000791FFC0190E08A010F5F1F4FEA013881EA
:10070000311102C094603BC03150A601401B510B17
:10071000E32EF12C4E155F0510F4342F9860AB01D9
:100720004E1B5F0BE32EF12C4E155F0510F4342F9A
:100730009260AF017801832F882359F0E701299156
:100740007E01211101C09460EA012993AE0181501C
:10075000F3CFE32EF12CA8014E0D5F1DEE0DFF1D12
:100760004C155D0560F43E3F31F2E617F70710F0D7
:10077000926005C010823196BECFFC0190E0EA1B6A
:10078000FB0BBF01892FDF91CF911F910F91FF903C
:10079000EF90DF90CF900895E0916E00F0916F00A0
:1007A00020916D0081111AC030E0AF0164E070E06B
:1007B000CF01069683DF982F20E030E0482F50E0ED
:1007C000241735072CF4B39AB39A2F5F3F4FF8CF15
:1007D00081E0911180E010926D000895E20FF11D0B
:1007E00080832F5F20936D0080E00895CF93DF9387
:1007F000C0916E00D0916F00262F30E0AC0166E012
:1008000070E0CE01FFDE81110CC021E0260F2093A5
:100810006C0010926B00FE01E60FF71F108281E062
:1008200001C080E0DF91CF910895DC0190916B00D1
:1008300080916C00981768F4E0916E00F0916F0061
:10084000E90FF11D80818C939F5F90936B0081E095
:10085000089580E00895E5EAF0E071836083828383
:10086000339690E0E43BF907C1F765E070E085EA74
:1008700090E02CCE811107C0609160007091610002
:1008800080916200E8CF08951F920F920FB60F92E9
:1008900011242F933F934F935F936F937F938F9385
:1008A0009F93AF93BF93EF93FF934CDEFF91EF9134
:1008B000BF91AF919F918F917F916F915F914F9178
:1008C0003F912F910F900FBE0F901F9018951F9280
:1008D0000F920FB60F9211242F933F934F935F9374
:1008E0006F937F938F939F93AF93BF93EF93FF93F8
:1008F000FEDDFF91EF91BF91AF919F918F917F911D
:100900006F915F914F913F912F910F900FBE0F907C
:100910001F9018951F920F920FB60F9211248F936C
:100920009F9380916400909165000196909365007B
:10093000809364009F918F910F900FBE0F901F9036
:1009400018951F920F920FB60F9211242F933F9379
:100950004F935F936F937F938F939F93AF93BF93C7
:10096000EF93FF9318DEB49AFF91EF91BF91AF918F
:100970009F918F917F916F915F914F913F912F91B7
:100980000F900FBE0F901F90189593B7987F93BF4D
:1009900012BE69BD93B7892B83BF08951F920F9232
:1009A0000FB60F9211242F933F934F935F936F9342
:1009B0007F938F939F93AF93BF93CF93EF93FF93C7
:1009C00080917C008130B1F1C8F0823009F448C0D8
:1009D000833009F075C01092760010927500109265
:1009E00074001092730010927800109277008FEFCD
:1009F0009FEF90937A00809379005DC0809173009F
:100A0000909174000A9750F0C1E0C0937B00C39AA4
:100A100064E782E0BADFC0937C0052C010927B0092
:100A2000809173009091740001969093740080936C
:100A3000730046C0C398B19911C080917500909120
:100A400076008530924098F58091750090917600FF
:100A50000196909376008093750032C082E028C0A2
:100A60008091770090917800019690937800809320
:100A70007700809177009091780085309240B8F4AB
:100A8000B1991EC0809177009091780090937A0080
:100A90008093790010927600109275001092740085
:100AA00010927300109278001092770004C083E0D7
:100AB00080937C0005C060EA85E067DF10927C00CF
:100AC000FF91EF91CF91BF91AF919F918F917F91C6
:100AD0006F915F914F913F912F910F900FBE0F90AB
:100AE0001F901895DC01FB012C912130D1F018F0FA
:100AF0002230F1F0089511968C911197808312960F
:100B00008D919C9113979283818380E090E0218165
:100B100032818217930720F4B39AB39A0196F7CFE4
:100B2000089511968D919C911297928381830895D7
:100B3000CB01208361E05ADE809366000895CF9355
:100B4000DF93CDB7DEB72E970FB6F894DEBF0FBE9A
:100B5000CDBF81E080938B0010928C0010928D00AD
:100B600010928E0010928F001092900010929100BF
:100B7000109292008DE790E0909372008093710044
:100B8000CE01019690936F0080936E0010927600D4
:100B90001092750010927C001092740010927300F5
:100BA00010927800109277008FEF9FEF90937A0069
:100BB000809379009D878C871B86B998C198BC9AD1
:100BC000C498BB9A8AB582608ABD89B7806189BFA3
:100BD000BA9885B7826085BFC29A22E046E350E0AA
:100BE00067E370E088E390E073DC88E28EBD80E527
:100BF0008BBD8DBD89B7846689BF80B7806880BF93
:100C000080B7807F80BFE0917100F09172008FE427
:100C100090E09087878380E590E09287818780EFDE
:100C2000838784E0848760EA88EFAFDED3DCB89AFC
:100C300078948824839488E2E82EF12C99249A945D
:100C400094E6C92ED12C2FE0A22EB12C04EB10E09B
:100C5000412C512C32014394E0917100F0917200CB
:100C600082A18130C1F4B39AB39ABCDC95DD8130A6
:100C700019F580E090E029853A858217930720F4E2
:100C8000B39AB39A0196F7CFBE01655F7F4FCE014D
:100C9000079628DF11C080916600813069F481A138
:100CA000813051F4CE010E96C0DD813019F48E856D
:100CB000A0DC02C0109266008091790090917A00C9
:100CC00080927B009C01215031092C32314000F58B
:100CD0008A319105E0F58FEF91EE24E0815090404C
:100CE0002040E1F700C0000080916700909168000B
:100CF000A0916900B0916A00892B8A2B8B2B61F03F
:100D000010926700109268001092690010926A00B9
:100D100080917B00AFDDA0CF4092670050926800C9
:100D20006092690070926A0080917B00811194CF7B
:100D3000E5EAF0E091821082128233960E171F07C7
:100D4000C9F765E070E085EA90E0C0DB85CF2091CF
:100D50007B008536910520F521117ECF9601281B59
:100D6000390BC901B50152D0CB01E5EAF0E020E032
:100D700030E09182108212822F5F3F4F33968217AC
:100D80009307BCF763E070E030D0FC01EB55FF4FF8
:100D900033960E171F07A9F2118210821282F8CF24
:100DA00021115ACF84569109B70130D09B01E5EA51
:100DB000F0E080E090E011829082128201963396FA
:100DC00028173907C4F7C90163E070E00ED0FC01B1
:100DD000EB55FF4F2F5F3F4F33962530310508F01D
:100DE000B0CF118210821282F5CF0024552704C0A3
:100DF000080E591F880F991F009729F0769567955F
:100E0000B8F37105B9F7802D952F0895AA1BBB1B68
:100E100051E107C0AA1FBB1FA617B70710F0A61BFA
:100E2000B70B881F991F5A95A9F780959095BC011B
:100E3000CD0108952A153B054C055D056E057F051E
:0A0E4000800791070895F894FFCF92
:040E4A0000000000A4
:00000001FF
