:1000000015C00DC72EC0BBC600C72BC02AC029C053
:1000100028C0D8C690C625C025C723C022C06FC23D
:100020009AC2ECC218C32BC37DC368C311241FBE80
:10003000CFE5D2E0DEBFCDBF10E0A0E6B0E0EAE45D
:10004000F0E102C005900D92AA36B107D9F720E081
:10005000AAE6B0E001C01D92A23DB207E1F72ED79B
:10006000F2C7CECF90936F0080936E000895E09119
:100070006E00F0916F0020916D0081110DC030E095
:10008000AF0165E070E0CF010796C9D591E081111D
:1000900090E010926D0007C0E20FF11D80832F5F8A
:1000A00020936D0090E0892F0895262F30E0AC0159
:1000B00067E070E080916E0090916F0054D58111DF
:1000C00010C021E0260F20936C0010926B0020914D
:1000D0006E0030916F00F901E60FF71F108281E08A
:1000E000089580E00895DC0190916B0080916C0090
:1000F000981768F4E0916E00F0916F00E90FF11D20
:1001000080818C939F5F90936B0081E0089580E0E5
:1001100008950F931F93CF93DF931F92CDB7DEB750
:100120008C011BD4813071F41ED4A1DF8130D9F44D
:1001300080916E0090916F006AE670E00796F8017A
:10014000099511C080916A00813069F41CD4813016
:1001500051F4CE010196C7DF813019F489810AD4A8
:1001600002C010926A000F90DF91CF911F910F9102
:1001700008950895E0918500F09186008081918135
:100180000895E0918500F091860015821482128610
:10019000138212821782168284892289318903840C
:1001A000F485E02D908193239083E0918500F09178
:1001B00086000584F685E02D1082E0918500F0919F
:1001C00086000784F089E02D8083E0918500F0911E
:1001D00086000384F485E02D8081822B808308953E
:1001E000E0918500F09186008285813009F44FC04E
:1001F00038F0823009F486C0833009F4AFC0089526
:1002000022813381868990E028173907D0F1358D16
:100210000788F08DE02D208181E090E001C0880FFB
:100220003A95EAF7822B8083E0918500F091860071
:100230008589238931890384F485E02D9081932376
:100240009083E0918500F09186000584F685E02D8D
:100250001082E0918500F09186000784F089E02DFE
:100260008083E0918500F09186000384F485E02D81
:100270008081822B8083E0918500F091860081E06F
:100280006BC0828193810196938382830895258D2B
:100290000788F08DE02D408181E090E0BC0102C034
:1002A000660F771F2A95E2F79B012095309524234E
:1002B0002083E0918500F0918600A38DB48D4C9150
:1002C000268DBC0102C0660F771F2A95E2F79B01BD
:1002D0002423468D30E002C0880F991F4A95E2F72B
:1002E0002817390769F02481358180859185281781
:1002F000390788F5848195810196958384830895D3
:1003000082E02AC086819781019697838683268121
:1003100037818085918528173907E8F4A38DB48D3E
:100320004C91868D21E030E0B90102C0660F771F45
:100330008A95E2F7CB018423468D90E002C0220F1C
:10034000331F4A95E2F78217930789F086819781D8
:100350009183808316CF83E08287089512DFE09136
:100360008500F09186008FEF9FEF91838083089541
:1003700090938600809385002FEF3FEFFC0131833F
:10038000208308958F92AF92CF92EF920F93CF93E5
:10039000DF93CDB7DEB7E0918500F0918600A58AA6
:1003A000C48AE38A028B218B508B478776876587C7
:1003B00094878387868A8A859B8591878087DF914A
:1003C000CF910F91EF90CF90AF908F9008950F93B2
:1003D000E0918500F0918600908F878B728F618FFE
:1003E000258F068F548F438F268D018CF28DE02D43
:1003F000408181E090E0BC0102C0660F771F2A9522
:10040000E2F79B012095309524232083E09185001D
:10041000F0918600268D0788F08DE02D4081BC018B
:1004200002C0660F771F2A95E2F79B012095309551
:1004300024232083E0918500F0918600358D018C86
:10044000F28DE02D208101C0880F3A95EAF7822BCA
:1004500080830F910895E0917100F091720097A14F
:10046000933044F0811106C087A186A317A281E0D2
:1004700085A32AC094A1933031F0943081F092305A
:1004800019F517A221C097A191111EC036A1268D82
:1004900001C0880F3A95EAF7822B868F15C087A195
:1004A000811109C086A1873020F486A18F5F86A3C1
:1004B00002C081E008959485A185B2858C91892B35
:1004C0008C9387A18F5F87A380E00895AF92BF923E
:1004D000CF92DF92EF92FF920F931F93CF93DF9310
:1004E000C0917100D0917200EDA14E2F50E04730C5
:1004F000510508F088C1FA01E15FFF4F09941E8E93
:100500001EA21FA21E8A1F8A188E198E1A8E1B8E7B
:100510001C8E1D8E87E08BA33E81EA81FB812081AA
:1005200081E090E002C0880F991F3A95E2F780952C
:1005300090958223808381E089A39CA1923009F465
:100540005BC09B85E985FA85808189238083EF8163
:10055000F885108292C09CA1933061F0943009F02C
:1005600052C12C85E985FA859081922B90839EA1BA
:100570009F5F9EA3813009F046C19EA197300CF485
:100580007CC02B85E985FA85908192239083EF8149
:10059000F88510822C85E985FA859081922B9083CD
:1005A0001EA21E8E1EA21FA21E8A1F8A188E198EC0
:1005B0001A8E1B8E1C8E1D8E97E09BA389A32E8105
:1005C000EA81FB81408181E090E0BC0102C0660FBE
:1005D000771F2A95E2F79B01242B20833E81E88137
:1005E000F981208102C0880F991F3A95E2F7809522
:1005F00090958223808382E08DA305C18CA18430F5
:1006000009F001C18EA181110AC09C85E985FA8596
:100610008081892B80838EA18F5F8EA3F4C03E8161
:10062000EA81FB81208181E090E002C0880F991F60
:100630003A95E2F7809590958223808383E08DA39D
:100640001EA29B85E985FA85808189238083EF81BD
:10065000F8851082D8C0FFDE813009F0D4C08E8DBD
:100660008D871E8E1EA21FA28D85853521F08C3CA4
:1006700009F4C9C002C084E0BFCF1DA2C4C0EBDE34
:10068000813009F0C0C09B85E985FA858081892386
:100690008083EF81F88510829BA18E8DFE01E90F8A
:1006A000F11D97FDFA95868B8BA181508BA31E8E31
:1006B0001EA21FA28BA187FFA6C02E853F85488959
:1006C00059896A897B898C899D89AE88BF88C88C45
:1006D000D98CEA8CFB8C0C8D1D8DACD419F486E082
:1006E0008DA301C01DA21E8A1F8A188E198E1A8E14
:1006F0001B8E1C8E1D8E87E08BA310C0ACDE81305C
:1007000009F081C02B85E985FA8590819223908339
:10071000EF81F88510829E8D9F8F8AA31E8E1EA268
:100720001FA271C09FA193303CF0811105C08FA121
:100730008EA31FA281E060CF8CA1833091F1843021
:1007400009F455C0823009F05EC088A12EA190E066
:1007500002C0959587952A95E2F780FD1CC02E81F1
:10076000EA81FB81408181E090E0BC0102C0660F1C
:10077000771F2A95E2F79B01242B20833E81E88195
:10078000F981208102C0880F991F3A95E2F7809580
:100790009095822380831FA219A281E0809370002C
:1007A00032C08FA1811120C03E81EA81FB8120816E
:1007B00081E090E002C0880F991F3A95E2F780959A
:1007C0009095822380838EA1873050F48EA18F5F15
:1007D0008EA39C85E985FA858081892B808304C05E
:1007E00081E089A31EA21FA2109270000CC089A1F3
:1007F000811109C09C85E985FA858081892B8083D8
:100800008FA18F5F8FA3DF91CF911F910F91FF90E9
:10081000EF90DF90CF90BF90AF900895E09171007E
:10082000F091720091838083738362832683558362
:1008300044833681A281B3812C9181E090E002C093
:10084000880F991F3A95E2F78095909582238C93B3
:1008500012A2178E168E0895E0917100F091720029
:100860009087878372876187438724870895E09103
:100870007100F091720084E084A39385A185B28514
:100880008C9189238C93A781B0851C92A481B5811A
:100890002C91868141E050E0BA0102C0660F771FBB
:1008A0008A95E2F7CB018223968102C0440F551F3F
:1008B0009A95E2F7282F30E081E04217530709F0BC
:1008C00080E004CEE0917100F091720083E084A397
:1008D000A481B5812C91868141E050E0BA0102C02B
:1008E000660F771F8A95E2F7CB018223968102C0BB
:1008F000440F551F9A95E2F7282F30E081E0421708
:10090000530709F080E0E2CDE0917100F0917200B0
:1009100082E084A380917000811110C09385A1852D
:10092000B2858C9189238C93A781B0851C92948584
:100930000184F285E02D8081892B808380E0C6CD03
:10094000E0917100F091720015A281E084A3BECD08
:1009500090937200809371000895E0917100F0917E
:10096000720082A10895E0917100F091720012A2CC
:10097000878D0895E0917100F091720095E095A344
:1009800080A311A20895E0917100F091720081A1FD
:1009900008959093800080937F000895E0917F00F8
:1009A000F091800073836283448391838083DB01B1
:1009B0005C9181E090E09C0101C0220F4A95EAF72A
:1009C000252B2C93A081B1812C91048002C0880F2B
:1009D000991F0A94E2F7809582238C930895FC0175
:1009E00020E030E098E04081518162817381022EE5
:1009F00004C0440F551F661F771F0A94D2F796BB99
:100A000067FF04C0000000000000000000000000BC
:100A100000000000000096BB2F5F3F4F28313105DA
:100A200011F70895DF92EF92FF920F931F93CF93E8
:100A3000DF93082FF92EE62ED42EA0917F00B091DF
:100A40008000ED91FC911197208181E090E0149657
:100A50000C9002C0880F991F0A94E2F780958223B8
:100A60008083F894C02FDF2D10E01E1559F081E02F
:100A7000D81611F0CE0102C0802F9F2DB0DF1F5F6E
:100A80002396F3CF7894DF91CF911F910F91FF9030
:100A9000EF90DF9008958F929F92AF92BF92CF9286
:100AA000DF92EF92FF920F931F93FB01642F480197
:100AB00059014E2D00917B0010917C0020917D000A
:100AC00030917E00C0907700D0907800E09079005F
:100AD000F0907A000C151D052E053F0570F08091F1
:100AE000730090917400A0917500B0917600081782
:100AF00019072A073B0718F4CF0194DF20C091D2D1
:100B0000DC01CB01880D991DAA1DBB1D80937300CC
:100B100090937400A0937500B093760082D2B6943F
:100B2000A79497948794860E971EA81EB91E80924C
:100B3000770090927800A0927900B0927A0071D2FA
:100B400060937B0070937C0080937D0090937E0087
:100B50001F910F91FF90EF90DF90CF90BF90AF90DB
:100B60009F908F900895EF92FF920F931F93CF93D2
:100B7000DF938C01680F791FFC013196009719F003
:100B80004115510521F460E070E081E041C021157C
:100B9000310531F1240F351FEA01DC0191E0E61740
:100BA000F70710F58991AF014F5F5F4F811107C0C3
:100BB0009C937A01DF01C217D30780F01DC07A0130
:100BC00080839F5FC217D30788F49F3F11F0F7011E
:100BD000E6CF9C93DA01CF0102967C0191E0F7CF3A
:100BE000DC0120E091E004C022E002C0FA0120E034
:100BF000A617B70738F403C0FA0120E091E09C93F0
:100C0000BF0101C022E0CB01801B910BBC01822FF0
:100C1000DF91CF911F910F91FF90EF900895CF92A8
:100C2000DF92EF92FF920F931F93CF93DF93DC013C
:100C3000009719F04115510521F460E070E081E062
:100C400053C02115310509F449C06A01C20ED31EF3
:100C5000680F791FFC0190E08A010F5F1F4FEA01C6
:100C60003881311102C094603BC03150A601401B55
:100C7000510BE32EF12C4E155F0510F4342F9860C4
:100C8000AB014E1B5F0BE32EF12C4E155F0510F4EC
:100C9000342F9260AF017801832F882359F0E70148
:100CA00029917E01211101C09460EA012993AE01CE
:100CB0008150F3CFE32EF12CA8014E0D5F1DEE0DF8
:100CC000FF1D4C155D0560F43E3F31F2E617F70756
:100CD00010F0926005C010823196BECFFC0190E00A
:100CE000EA1BFB0BBF01892FDF91CF911F910F9161
:100CF000FF90EF90DF90CF900895CF93DF93FC01AA
:100D0000EB019081913059F040F0923061F09330D6
:100D100079F481818093CF000BC064E005C062E06C
:100D200080ED90E003C061E08EEC90E0BED9888356
:100D3000DF91CF91089578941F920F920FB60F9282
:100D400011242F933F934F935F936F937F938F93D0
:100D50009F93AF93BF93EF93FF9342DAFF91EF918D
:100D6000BF91AF919F918F917F916F915F914F91C3
:100D70003F912F910F900FBE0F901F9018951F92CB
:100D80000F920FB60F9211242F933F934F935F93BF
:100D90006F937F938F939F93AF93BF93EF93FF9343
:100DA00091DDFF91EF91BF91AF919F918F917F91D5
:100DB0006F915F914F913F912F910F900FBE0F90C8
:100DC0001F9018951F920F920FB60F9211242F9318
:100DD0003F934F935F936F937F938F939F93AF93C3
:100DE000BF93EF93FF9343DDFF91EF91BF91AF91DD
:100DF0009F918F917F916F915F914F913F912F9133
:100E00000F900FBE0F901F9018951F920F920FB664
:100E10000F9211240F900FBE0F901F9018951F92E4
:100E20000F920FB60F9211242F933F934F935F931E
:100E30006F937F938F939F93AF93BF93EF93FF93A2
:100E400063DDFF91EF91BF91AF919F918F917F9162
:100E50006F915F914F913F912F910F900FBE0F9027
:100E60001F90189578941F920F920FB60F9211242D
:100E70008F939F93AF93BF93809181009091820055
:100E8000A0918300B09184000196A11DB11D8093B3
:100E9000810090938200A0938300B093840081B579
:100EA000886181BD81B5806481BDBF91AF919F9103
:100EB0008F910F900FBE0F901F901895CF93DF93D7
:100EC000CDB7DEB761970FB6F894DEBF0FBECDBFCA
:100ED0008FEF9FEF9093D1008093D0001092CE00BF
:100EE00081E08093950010929600109297001092E6
:100EF00098001092990010929A0010929B00109204
:100F00009C0087E890E024DDCE010196ABD88FEA03
:100F100090E02EDACE010D963CDD8BB780648BBF5E
:100F200085B7826085BF22E046E350E067E370E06A
:100F300088E390E073DC01E020E046E350E067E303
:100F400070E088E390E043DA43E067E370E088E331
:100F500090E024DD83B7887F83BF8AB582608ABD35
:100F600089B7806189BF82E08F9385E08F938AE0A3
:100F7000882E912C94E7A92E20EAC22E32E0E32E8F
:100F800005E028EF49E450E062E570E083E590E099
:100F9000F9D988E28EBD80E58BBD8DBD89B78466A9
:100FA00089BF80B7806880BF80B7807F80BF24E022
:100FB00040EF60E570E08FE490E04EDCA89514BE51
:100FC00081B5886181BD81B5836481BDDAD8B8DC23
:100FD00041E065E080E690E025DD78940F900F9089
:100FE0008DE796E096D8C6D89093D1008093D00034
:100FF000EE24E39408E010E020E030E045E066E60F
:1010000070E083E690E047DD8EEC90E0B2D82FEF01
:1010100080E792E0215080409040E1F700C000005E
:10102000DFCF609181007091820080918300909168
:10103000840008952A153B054C055D056E057F0566
:0A104000800791070895F894FFCF90
:0A104A0000FFA50000FF00FF0000FA
:00000001FF
