:1000000015C07FC523C02DC572C520C01FC01EC02E
:100010001DC04AC502C51AC019C018C017C06BC0A0
:1000200096C0E8C014C127C179C164C111241FBEA4
:10003000CFE5D2E0DEBFCDBF20E0A0E6B0E001C05A
:100040001D92A23BB207E1F7ADD580C6D9CFE091B2
:100050006700F091680097A1933044F0811106C0C9
:1000600087A186A317A281E085A32AC094A193301B
:1000700031F0943081F0923019F517A221C097A188
:1000800091111EC036A1268D01C0880F3A95EAF75E
:10009000822B868F15C087A1811109C086A1873068
:1000A00020F486A18F5F86A302C081E00895948525
:1000B000A185B2858C91892B8C9387A18F5F87A3B3
:1000C00080E00895AF92BF92CF92DF92EF92FF92BD
:1000D0000F931F93CF93DF93C0916700D091680077
:1000E000EDA14E2F50E04730510508F088C1FA01CC
:1000F000E15FFF4F09941E8E1EA21FA21E8A1F8A57
:10010000188E198E1A8E1B8E1C8E1D8E87E08BA367
:100110003E81EA81FB81208181E090E002C0880F6E
:10012000991F3A95E2F7809590958223808381E02C
:1001300089A39CA1923009F45BC09B85E985FA856F
:10014000808189238083EF81F885108292C09CA1F1
:10015000933061F0943009F052C12C85E985FA851D
:100160009081922B90839EA19F5F9EA3813009F086
:1001700046C19EA197300CF47CC02B85E985FA8599
:10018000908192239083EF81F88510822C85E985F8
:10019000FA859081922B90831EA21E8E1EA21FA212
:1001A0001E8A1F8A188E198E1A8E1B8E1C8E1D8E0B
:1001B00097E09BA389A32E81EA81FB81408181E0A6
:1001C00090E0BC0102C0660F771F2A95E2F79B0101
:1001D000242B20833E81E881F981208102C0880F91
:1001E000991F3A95E2F7809590958223808382E06B
:1001F0008DA305C18CA1843009F001C18EA18111AC
:100200000AC09C85E985FA858081892B80838EA12F
:100210008F5F8EA3F4C03E81EA81FB81208181E063
:1002200090E002C0880F991F3A95E2F7809590956B
:100230008223808383E08DA31EA29B85E985FA85B6
:10024000808189238083EF81F8851082D8C0FFDE0A
:10025000813009F0D4C08E8D8D871E8E1EA21FA204
:100260008D85853521F08C3C09F4C9C002C084E03D
:10027000BFCF1DA2C4C0EBDE813009F0C0C09B859A
:10028000E985FA85808189238083EF81F885108252
:100290009BA18E8DFE01E90FF11D97FDFA95868BCE
:1002A0008BA181508BA31E8E1EA21FA28BA187FF44
:1002B000A6C02E853F85488959896A897B898C89A2
:1002C0009D89AE88BF88C88CD98CEA8CFB8C0C8D3C
:1002D0001D8D33D519F486E08DA301C01DA21E8AA1
:1002E0001F8A188E198E1A8E1B8E1C8E1D8E87E00B
:1002F0008BA310C0ACDE813009F081C02B85E9856D
:10030000FA85908192239083EF81F88510829E8DEB
:100310009F8F8AA31E8E1EA21FA271C09FA1933021
:100320003CF0811105C08FA18EA31FA281E060CF98
:100330008CA1833091F1843009F455C0823009F0EA
:100340005EC088A12EA190E002C0959587952A9560
:10035000E2F780FD1CC02E81EA81FB81408181E0B3
:1003600090E0BC0102C0660F771F2A95E2F79B015F
:10037000242B20833E81E881F981208102C0880FEF
:10038000991F3A95E2F780959095822380831FA26A
:1003900019A281E08093660032C08FA1811120C034
:1003A0003E81EA81FB81208181E090E002C0880FDC
:1003B000991F3A95E2F780959095822380838EA1CC
:1003C000873050F48EA18F5F8EA39C85E985FA85D6
:1003D0008081892B808304C081E089A31EA21FA293
:1003E000109266000CC089A1811109C09C85E98525
:1003F000FA858081892B80838FA18F5F8FA3DF9106
:10040000CF911F910F91FF90EF90DF90CF90BF9011
:10041000AF900895E0916900F0916A00158214820E
:100420001286138212821782168284892289318968
:100430000384F485E02D908193239083E0916900FB
:10044000F0916A000584F685E02D1082E091690044
:10045000F0916A000784F089E02D8083E0916900C3
:10046000F0916A000384F485E02D8081822B8083E3
:100470000895E0916900F0916A008285813009F465
:100480004FC038F0823009F486C0833009F4AFC021
:10049000089522813381868990E028173907D0F1A9
:1004A000358D0788F08DE02D208181E090E001C03E
:1004B000880F3A95EAF7822B8083E0916900F091EA
:1004C0006A008589238931890384F485E02D908130
:1004D00093239083E0916900F0916A000584F6858A
:1004E000E02D1082E0916900F0916A000784F089A4
:1004F000E02D8083E0916900F0916A000384F48527
:10050000E02D8081822B8083E0916900F0916A0068
:1005100081E06BC0828193810196938382830895E9
:10052000258D0788F08DE02D408181E090E0BC01B1
:1005300002C0660F771F2A95E2F79B012095309540
:1005400024232083E0916900F0916A00A38DB48D8B
:100550004C91268DBC0102C0660F771F2A95E2F7E9
:100560009B012423468D30E002C0880F991F4A95D5
:10057000E2F72817390769F0248135818085918554
:100580002817390788F5848195810196958384839E
:10059000089582E02AC08681978101969783868399
:1005A000268137818085918528173907E8F4A38D46
:1005B000B48D4C91868D21E030E0B90102C0660F08
:1005C000771F8A95E2F7CB018423468D90E002C025
:1005D000220F331F4A95E2F78217930789F086812D
:1005E00097819183808316CF83E08287089512DFFD
:1005F000E0916900F0916A008FEF9FEF9183808313
:1006000008950F93E0916900F0916A00908F878BB5
:10061000728F618F258F068F548F438F268D018CAB
:10062000F28DE02D408181E090E0BC0102C0660FB8
:10063000771F2A95E2F79B0120953095242320838C
:10064000E0916900F0916A00268D0788F08DE02D19
:100650004081BC0102C0660F771F2A95E2F79B011B
:100660002095309524232083E0916900F0916A0061
:10067000358D018CF28DE02D208101C0880F3A95D7
:10068000EAF7822B80830F910895E0916700F09143
:1006900068009183808373836283268355834483B8
:1006A0003681A281B3812C9181E090E002C0880F55
:1006B000991F3A95E2F78095909582238C9312A228
:1006C000178E168E0895E0916700F091680084E01F
:1006D00084A39385A185B2858C9189238C93A7816E
:1006E000B0851C92A481B5812C91868141E050E0B7
:1006F000BA0102C0660F771F8A95E2F7CB01822309
:10070000968102C0440F551F9A95E2F7282F30E0DA
:1007100081E04217530709F080E0D4CCE0916700F4
:10072000F091680083E084A3A481B5812C91868137
:1007300041E050E0BA0102C0660F771F8A95E2F7E8
:10074000CB018223968102C0440F551F9A95E2F790
:10075000282F30E081E04217530709F080E0B2CC47
:10076000E0916700F091680082E084A380916600C8
:10077000811110C09385A185B2858C9189238C93BA
:10078000A781B0851C9294850184F285E02D80813B
:10079000892B808380E096CCE0916700F09168001F
:1007A00015A281E084A38ECCE0916700F0916800EF
:1007B00012A2878D0895E0916700F091680095E09E
:1007C00095A380A311A20895EF92FF920F931F9318
:1007D000CF93DF938C01680F791FFC01319600974E
:1007E00019F04115510521F460E070E081E041C04D
:1007F0002115310531F1240F351FEA01DC0191E0AB
:10080000E617F70710F58991AF014F5F5F4F811130
:1008100007C09C937A01DF01C217D30780F01DC087
:100820007A0180839F5FC217D30788F49F3F11F03E
:10083000F701E6CF9C93DA01CF0102967C0191E0AB
:10084000F7CFDC0120E091E004C022E002C0FA0111
:1008500020E0A617B70738F403C0FA0120E091E0C2
:100860009C93BF0101C022E0CB01801B910BBC0116
:10087000822FDF91CF911F910F91FF90EF900895FC
:10088000CF92DF92EF92FF920F931F93CF93DF935C
:10089000DC01009719F04115510521F460E070E08A
:1008A00081E053C02115310509F449C06A01C20E27
:1008B000D31E680F791FFC0190E08A010F5F1F4F64
:1008C000EA013881311102C094603BC03150A60169
:1008D000401B510BE32EF12C4E155F0510F4342F05
:1008E0009860AB014E1B5F0BE32EF12C4E155F059C
:1008F00010F4342F9260AF017801832F882359F0D0
:10090000E70129917E01211101C09460EA01299338
:10091000AE018150F3CFE32EF12CA8014E0D5F1DE7
:10092000EE0DFF1D4C155D0560F43E3F31F2E617FC
:10093000F70710F0926005C010823196BECFFC011F
:1009400090E0EA1BFB0BBF01892FDF91CF911F9134
:100950000F91FF90EF90DF90CF900895E0916400A9
:10096000F09165002091630081111AC030E0AF0161
:1009700064E070E0CF01069683DF982F20E030E03E
:10098000482F50E0241735072CF4B39AB39A2F5F01
:100990003F4FF8CF81E0911180E0109263000895FD
:1009A000E20FF11D80832F5F2093630080E00895A4
:1009B000CF93DF93C0916400D0916500262F30E083
:1009C000AC0166E070E0CE01FFDE81110CC021E0D9
:1009D000260F2093620010926100FE01E60FF71FC0
:1009E000108281E001C080E0DF91CF910895DC01A9
:1009F0009091610080916200981768F4E091640022
:100A0000F0916500E90FF11D80818C939F5F9093B9
:100A1000610081E0089580E0089578941F920F921C
:100A20000FB60F9211242F933F934F935F936F93C1
:100A30007F938F939F93AF93BF93EF93FF9319DDB2
:100A4000FF91EF91BF91AF919F918F917F916F91A6
:100A50005F914F913F912F910F900FBE0F901F907C
:100A600018951F920F920FB60F9211242F933F9358
:100A70004F935F936F937F938F939F93AF93BF93A6
:100A8000EF93FF934BDEFF91EF91BF91AF919F9159
:100A90008F917F916F915F914F913F912F910F9027
:100AA0000FBE0F901F9018951F920F920FB60F92C6
:100AB00011242F933F934F935F936F937F938F9363
:100AC0009F93AF93BF93EF93FF93FDDDFF91EF9162
:100AD000BF91AF919F918F917F916F915F914F9156
:100AE0003F912F910F900FBE0F901F9018951F925E
:100AF0000F920FB60F9211240F900FBE0F901F9000
:100B000018951F920F920FB60F9211242F933F93B7
:100B10004F935F936F937F938F939F93AF93BF9305
:100B2000EF93FF931DDEB39AFF91EF91BF91AF91C9
:100B30009F918F917F916F915F914F913F912F91F5
:100B40000F900FBE0F901F901895DC01FB012C91A8
:100B50002130D1F018F02230F1F0089511968C91E7
:100B60001197808312968D919C9113979283818324
:100B700080E090E0218132818217930720F4B39ABC
:100B8000B39A0196F7CF089511968D919C91129783
:100B9000928381830895CB01208361E009DF8093F4
:100BA00060000895CF93DF93CDB7DEB72E970FB6D1
:100BB000F894DEBF0FBECDBFBB9AC3988FEF9FEFF7
:100BC0009D878C871B8621E02093790010927A0004
:100BD00010927B0010927C0010927D0010927E009B
:100BE00010927F00109280002BE630E03093680076
:100BF000209367009E012F5F3F4F30936500209345
:100C0000640023E930E030936A00209369009093F8
:100C10009400809393008BB780648BBF85B782600C
:100C200085BF22E046E350E067E370E088E390E0B0
:100C30002CDD01E020E046E350E067E370E088E36C
:100C400090E0DFDC83B7887F83BF8AB582608ABD8E
:100C500089B7806189BFE0916900F0916A0084E7FB
:100C6000858B80EA848B82E0838B85E0828B88EFA2
:100C7000818B89E490E0908B878782E590E096876E
:100C8000858783E590E0948783878AE0868B85E07B
:100C900092E09187808788E28EBD80E58BBD8DBD17
:100CA00089B7846689BF80B7806880BF80B7807F3E
:100CB00080BFE0916700F09168008FE490E090873A
:100CC000878380E590E09287818780EF838784E047
:100CD0008487A0DB61DD7894E0916700F091680083
:100CE00082A18130C1F4B39AB39A5EDD37DE8130E0
:100CF00099F780E090E029853A858217930720F4E0
:100D0000B39AB39A0196F7CFBE01655F7F4FCE01CC
:100D100007961BDFE1CF809160008130E9F681A169
:100D20008130D1F6CE010E9662DE813019F48E85C7
:100D300042DDD2CF10926000CFCF2A153B054C0583
:100D40005D056E057F05800791070895F894FFCF34
:00000001FF
